:040000000C94B401A7
:080028000C9433060C945F03F5
:040038000C948F0392
:040064000C9477037E
:040078000C94550689
:14008C00D7180000B44200007F4300401C460000000096433E
:1400A0000B3CCDCCCC3DCDCCCC3E286E756C6C207074722047
:1400B4007061737365642900000000000020202020202020AF
:1400C800202030303030302020202020202020202020202054
:1400DC00202020202090404040404040404040404040404060
:1400F000400C0C0C0C0C0C0C0C0C0C40404040404040090972
:140104000909090901010101010101010101010101010101B3
:14011800010101014040404040400A0A0A0A0A0A020202020B
:14012C0002020202020202020202020202020202404040409F
:1401400020000000000000000000000000000000000000008B
:14015400000000000000000000000000000000000000000097
:14016800000000000000000000000000000000000000000083
:14017C0000000000000000000000000000000000000000006F
:1401900000000000000000000000000000000000000000005B
:1401A400000000000000000000000000000000000000000047
:1401B80000000000000000000066746F61206572726F723A05
:1401CC00206E756D62657220746F6F206269670066746F6108
:1401E000206572726F723A206E756D62657220746F6F2073D9
:1401F4006D616C6C0066746F61206572726F723A20756E65BB
:1402080078706563746564206572726F72000000003F17B79E
:14021C00D138000020410000803F000080BF00000000000066
:140230000100000001000000000000000000000000000000B8
:140244000000000000000000000000000000000000000000A6
:14025800000000000000000000000000000000000000000092
:14026C0000000000000000000000000000000000000000007E
:1402800000000000000000000000000000000000000000006A
:14029400000000000000000000000000000000000000000056
:1402A800000000000000000000000000000000000000000042
:1402BC0000000000000000000000000000000000000000002E
:1402D00000000000000000000000000000000000000000001A
:1402E400000000000000000000000000000000000000000006
:1402F8000000000000000000000000000000000000000000F2
:14030C00252E3366202531632D0032332E3035323939204EE1
:14032000202C203131332E333933373020450041542B434DDF
:1403340047533D223138353230323837303734222D0041549C
:140348002B435343533D2247534D222D0041542B434D4746D8
:0B035C003D312D00244750474C4C0061
:14036800CFEFD0E1CDBFDEBFCE51D0400AEA08830024E9E34B
:14037C00F2E01FE0E735F10711F00192FBCF0083EEE2F2E005
:14039000A0E0B1E013E000E00BBFE736F10721F0C895319661
:1403A4000D92F9CF0E949706FFCF8CEE9EE09093EB0E8093AA
:1403B800EA0E06EA10E00E946211E091EA0EF091EB0E0083DE
:1403CC0011832283338302EA10E00E946211E091EA0EF09153
:1403E000EB0E04831583268337830EE910E00E946211E09121
:1403F400EA0EF091EB0E00871187228733870AE910E00E947C
:140408006211E091EA0EF091EB0E04871587268737870AE905
:14041C0010E00E946211E091EA0EF091EB0E008B118B228B10
:14043000338B0AE910E00E946211E091EA0EF091EB0E048B90
:14044400158B268B378B0AE910E00E946211E091EA0EF091AF
:14045800EB0E008F118F228F338F0AE910E00E946211E0918C
:14046C00EA0EF091EB0E048F158F268F378F0AE910E00E94D3
:140480006211E091EA0EF091EB0E00A311A322A333A30AE92D
:1404940010E00E946211E091EA0EF091EB0E04A315A326A344
:1404A80037A30AE910E00E946211E091EA0EF091EB0E00A7E4
:1404BC0011A722A733A708958EEB9EE09093BD0E8093BC0E72
:1404D00006EA10E00E946211E091BC0EF091BD0E0083118385
:1404E4002283338302EA10E00E946211E091BC0EF091BD0E31
:1404F80004831583268337830EE910E00E946211E091BC0E37
:14050C00F091BD0E00871187228733870AE910E00E94621115
:14052000E091BC0EF091BD0E04871587268737870AE910E0CB
:140534000E946211E091BC0EF091BD0E008B118B228B338B85
:140548000AE910E00E946211E091BC0EF091BD0E048B158BF1
:14055C00268B378B0AE910E00E946211E091BC0EF091BD0E99
:14057000008F118F228F338F0AE910E00E946211E091BC0EA2
:14058400F091BD0E048F158F268F378F0AE910E00E9462116D
:14059800E091BC0EF091BD0E00A311A322A333A30AE910E0F3
:1405AC000E946211E091BC0EF091BD0E04A315A326A337A39D
:1405C0000AE910E00E946211E091BC0EF091BD0E00A711A749
:1405D40022A733A70895AA92BA922A972091E8023091E90243
:1405E8000091E6021091E7020E9423130E831F832887398782
:1405FC002090EA0233243D822C822E803F804884598406E986
:1406100010E00E9462113A932A931A930A93810192010E9446
:140624004513088319832A833B832EED31E00BE612E00E9427
:14063800E1182091E3023091E4020091E1021091E2020E94DD
:14064C0023130E831F83288739872090E50233243D822C8267
:140660002E803F804884598406E910E00E9462113A932A93F2
:140674001A930A93810192010E944513088319832A833B8387
:140688002EED31E009E312E00E94E1182A96B990A9900895DA
:14069C000E94D5114427552707C061E001C063956623E9F7B1
:1406B0004F5F5F4F40175107B0F30C94DA118A939A938FB76D
:1406C4008A9387B78B7F87BF8091D3019091D40101969093E2
:1406D800D4018093D30187B7846087BF89918FBF999189913E
:1406EC0018958A939A938FB78A9387B78B7F87BF8091D70129
:140700009091D80101969093D8018093D70187B7846087BF05
:1407140089918FBF9991899118950A921A922A923A924A92CC
:140728005A926A927A928A929A920A931A932A933A938A9390
:14073C009A93AA93BA93EA93FA930FB60A920E94D51187B7C1
:140750008F7D87BF80917D008F7D80937D002CB43DB4222006
:1407640009F05EC2332009F05BC28091DB019091DC0101967D
:140778009093DC018093DB012090D3013090D4013092D601CC
:14078C002092D5012090D7013090D8013092DA012092D90187
:1407A0008931E0E09E0711F52091D5013091D60105E010E02C
:1407B4000E94761122E030E00E94AA100E949C072091D901CA
:1407C8003091DA0105E010E00E94761122E030E00E94AA1015
:1407DC000E949C07222433243092DC012092DB01222433245D
:1407F0003092D4012092D3013092D8012092D7012091D5012C
:140804003091D60105E010E00E94761122E030E00E94AA10DC
:140818000E941A13E091EA0EF091EB0E008B118B228B338B88
:14082C002F010485158526853785CF0140969A938A930E946C
:14084000DC12F20104A315A326A337A32090EA0E3090EB0E60
:14085400A101445E5F4FFA010081118122813381C10184965D
:140868009A938A930E94BA12FA010083118322833383409186
:14087C00EA0E5091EB0EFA010489158926893789CF01489653
:140890009A938A930E94DC12FA0100A311A322A333A34091BC
:1408A400EA0E5091EB0EFA012488358846885788208E318EF0
:1408B800428E538E4091EA0E5091EB0EFA0124A035A046A05E
:1408CC0057A0248A358A468A578A4091EA0E5091EB0EFA0165
:1408E0000081118122813381CF0184969A938A930E94B514FB
:1408F40018012901FA010481158126813781CF014C969A9359
:140908008A930E94BF14810192010E94D11218012901FA0171
:14091C000085118522853385CF0180969A938A930E94BF14A8
:14093000810192010E94D112FA0100A711A722A733A700918B
:140944008600109187000E9418138091EA0E9091EB0E8896E3
:140958009A938A930E94C41202E910E00E9462110E94E4143F
:14096C003CF48FEF90E0909387008093860042C000918600FD
:14098000109187000E9418138091EA0E9091EB0E88969A9300
:140994008A930E94BA12180129010AE910E00E9462113A93BC
:1409A8002A931A930A93810192010E94E4143CF422243324B8
:1409BC0030928700209286001DC000918600109187000E94E8
:1409D00018138091EA0E9091EB0E88969A938A930E94BA12EF
:1409E4000E94E61210938700009386002090860030908700A5
:1409F80030928500209284002091D5013091D60105E010E07A
:140A0C000E94761122E030E00E94AA100E941A13E091BC0E35
:140A2000F091BD0E04871587268737872091D9013091DA01BD
:140A340005E010E00E94761122E030E00E94AA100E941A1373
:140A4800E091BC0EF091BD0E008B118B228B338BAF01048548
:140A5C00158526853785CF0140969A938A930E94DC12FA010A
:140A700004A315A326A337A36091BC0E7091BD0EAB01445E9B
:140A84005F4FFA010081118122813381CB0184969A938A931B
:140A98000E94BA12FA0100831183228333834091BC0E5091F3
:140AAC00BD0EFA010489158926893789CF0148969A938A93DE
:140AC0000E94DC12FA0100A311A322A333A34091BC0E509129
:140AD400BD0EFA012488358846885788208E318E428E538E14
:140AE8004091BC0E5091BD0EFA0124A035A046A057A0248A94
:140AFC00358A468A578A4091BC0E5091BD0EFA010081118121
:140B100022813381CF0184969A938A930E94B5141801290198
:140B2400FA010481158126813781CF014C969A938A930E94AA
:140B3800BF14810192010E94D11218012901FA0100851185E3
:140B4C0022853385CF0180969A938A930E94BF14810192017C
:140B60000E94D112FA0100A711A722A733A700918400109149
:140B740085000E9418138091BC0E9091BD0E88969A938A93EC
:140B88000E94C41202E910E00E9462110E94E4143CF48FEFA9
:140B9C0090E090938500809384003AC0009184001091850061
:140BB0000E9418138091BC0E9091BD0E88969A938A930E9493
:140BC400BA12180129010AE910E00E9462113A932A931A93DF
:140BD8000A93810192010E94E4143CF42224332430928500A9
:140BEC002092840015C000918400109185000E9418138091D1
:140C0000BC0E9091BD0E88969A938A930E94BA120E94E612BA
:140C140010938500009384008DE19BEF9DBD8CBD87B78062D2
:140C280087BF80917D00806280937D000E94DA1109900FBE7F
:140C3C00F991E991B991A99199918991399129911991099110
:140C50009990899079906990599049903990299019900990C6
:140C640018950A931A938A939A930FB70A9318E20091D0017C
:140C78000F5F0E944A110093D001002349F48091D101909135
:140C8C00D20101969093D2018093D10187E384BD09910FBFFC
:140CA000999189911991099118952A920A938A939A93EA93EB
:140CB400FA932FB62A9200919C002090DD012220A1F02090C0
:140CC800CE01222081F081E091E0E091DD01FF27E80FF91F40
:140CDC00802F805380838091DD018F5F8093DD010EC0209033
:140CF000CE01222051F0033741F42090DD01222021F4822D9B
:140D04008F5F8093DD018091DD01843029F422242092DD0166
:140D18002092CE0129902FBEF991E991999189910991299005
:140D2C0018953FDBC9DB0E9425070E942C070E9417080E9442
:140D400030080E94390800E815E20E94410700E815E20E943A
:140D54006B0777C081E08093CE0104EF11E09CDC2090020190
:140D6800222051F02090CF01222031F40E94100881E08093DF
:140D7C00CF010DC020900201222049F48091CF01813029F4E5
:140D90000E94090822242092CF0120900301222061F40AE996
:140DA40010E00E946211E091EA0EF091EB0E0487158726877F
:140DB800378780910301813061F40EE810E00E946211E091E2
:140DCC00EA0EF091EB0E048715872687378720900401222018
:140DE00051F4D998222433243092D2012092D10187B78F7B4B
:140DF40087BF809104018130A1F481E08093CE0104EF11E022
:140E080049DC81E08093CE0104EF11E043DC809104018130A4
:140E1C0021F487B7806487BFD99A8091D1019091D2018A3041
:140E3000E0E09E0741F40E94FD07222433243092D20120928A
:140E4400D10188CF08958FEF82B98ABB81BB8A98929A0895AF
:140E580080918B00896A80938B0080918A00896080938A0038
:140E6C002224332430928700209286003092850020928400D7
:140E800008950E94DF11580186E080939500150144245524D1
:140E940040E251EA67E070E05A924A923A922A928A019B01DF
:140EA8000E94E61041E050E060E070E018012901241A350AFD
:140EBC00460A570A510129B8232C33242092900088E18AB9AA
:140ED000119A0C94E6110E94DF11580186E080939D001501B5
:140EE4004424552440E251EA67E070E05A924A923A922A92D5
:140EF8008A019B010E94E61041E050E060E070E01801290103
:140F0C00241A350A460A570A5101A0929900232C332420922E
:140F2000980088E980939A0078948B9A0C94E6115D9BFECF7A
:140F34000CB90895AA92BA92580128EE33E085010E94AA105B
:140F4800F3DF28EE33E085010E94A610580124E630E00E94A7
:140F5C00AA10E8DF24E630E085010E94A61058012AE030E095
:140F70000E94AA10DDDF2AE030E085010E94A6105801D6DF4F
:140F8400B990A990089507C05D9BFECFF80120802CB80F5FC3
:140F98001F4FF80180818D30A9F708955F9BFECF0CB10895C2
:140FAC000027112709C084E093E0F801E80FF91F2224208242
:140FC0000F5F1F4F073BEBE01E0798F308954A935A934427B2
:140FD40055270AC00E94D20784E093E0FA01E80FF91F0083E4
:140FE8004F5F5F4F473BEBE05E0790F3599149910895E9DF3B
:140FFC0024E033E00DE912E00E94DB0B0E94ED020E947008AF
:14101000CDCF909A08EC10E00E944E0390980895919A08EC4B
:1410240010E00E944E03919808958EB580688EBD8EB58F7B4C
:141038008EBD8EB584608EBD8DE19BEF9DBD8CBD87B780622C
:14104C0087BF87B78B7F87BF86B7806286BF94988C9808956B
:1410600085B5856085BD87B7806487BF87E384BD089580915A
:141074008A00806880938A0080918A008F7B80938A008EB5D4
:1410880084608EBD8DE19BEF9DBD8CBD80917D008062809307
:14109C007D0080917D008B7F80937D0080917C008062809319
:1410B0007C001F98179808955D9BFECF0CB908954A935A93BC
:1410C400A80105C0FA010081F5DF4F5F5F4FFA0180818D3243
:1410D800B9F759914991089507E212E00E9460080DE00E947F
:1410EC005C080AE00E945C0808EE13E00E944E0308E112E0E5
:141100000E9460080DE00E945C080AE00E945C0808EE13E005
:141114000E944E0301E012E00E9460080DE00E945C080AE01A
:141128000E945C0808EE13E00E944E0308EE11E00E946008E0
:14113C000AE10E945C080DE00E945C080AE00E945C080027A4
:141150000895AA92BA92580114C0F80120803324822D8A32DE
:1411640029F0803218F08AE7821510F40FEF0BC0F8018081D5
:141178008C3209F42A950F5F1F4F222351F70A191B09B990F0
:14118C00A99008950E94FB11C02E249781E0888380E089834A
:1411A0008A838B83AA2415C0288039804A805B804AE050E01D
:1411B40060E070E05A924A923A922A928A019B010E948611E7
:1411C800088319832A833B83A394AC1448F3088119812A8181
:1411DC003B8124960C9404120E9495100E94CA112D970F88B4
:1411F000188C1A86098600240B860C86EE24AA243AC0E98589
:14120400FA8520803324822D8C3211F08A3209F431C0E985DA
:14121800FA8580818E3219F4EE24E3940EC0E985FA85208091
:14122C00332489E3821518F0822D803320F400240B860C868F
:141240001BC0E985FA85C080DD2480E38C1570F48C2D8933B4
:1412540058F48E2D813019F40C8403940C86EE2019F40B845E
:1412680003940B8689859A8501969A878987C5CF0B8C0B8699
:14127C00EE240EC0EE2DFF270F88188CE00DF11D2080CE0198
:14129000EE2DFF27E80FF91F2082E3940B84E01478F383E090
:1412A400E98DFA8D8083EE2417C02B843324EE2DFF2731963F
:1412B800E20DF31D0F88188CE00DF11D20803B844424EE2D0B
:1412CC00FF27E30DF41DCE01E80FF91F2082E3948E2D833082
:1412E00030F3CE010396EB8DFF27E80FF91F222420828B8DC2
:1412F4008D5F883009F0B9C019810AE00103C001805E9140D8
:14130800188104E60103F001E05CF241E80FF91F8A81992710
:14131C00C097E80FF91F1F01442437FC4094552447FC509428
:141330003092290F2092280F50922B0F40922A0F1B810AE019
:141344000103C001805E9140EC81FF27F0978E0F9F1F1C018F
:14135800442437FC4094552447FC50943092250F2092240F97
:14136C005092270F4092260F1E810103C001805E91401D819D
:1413800004E60103F001E05CF241E80FF91F8F819927C097D5
:14139400E80FF91F1F01442437FC4094552447FC5094309245
:1413A800210F2092200F5092230F4092220F4AE050E060E06F
:1413BC0070E05A924A923A922A928A019B010E94861146E0F7
:1413D00050E060E070E07A936A935A934A930E94E010109340
:1413E400210F0093200F3093230F2093220F4090260F509045
:1413F800270F2090240F3090250F48EE53E060E070E05A92EF
:14140C004A923A922A928A019B010E948611180129018090B5
:14142000220F9090230F6090200F7090210F260C371C481CFD
:14143400591C3092250F2092240F5092270F4092260F46E00F
:1414480050E060E070E0810192017A936A935A934A930E9445
:14145C00E0101093250F0093240F3093270F2093260F8B8DF6
:141470008D5F873009F0B0C018810AE00103C001805E914065
:14148400E981FF27F0978E0F9F1F1C01442437FC40945524DD
:1414980047FC50943092290F2092280F50922B0F40922A0F0F
:1414AC001A810103C001805E9140EB81FF27F0978E0F9F1FA9
:1414C0001C01442437FC4094552447FC50943092250F209244
:1414D400240F5092270F4092260F1D810103C001805E9140A0
:1414E8001C8104E60103F001E05CF241E80FF91F8E81992727
:1414FC00C097E80FF91F1F01442437FC4094552447FC509447
:141510003092210F2092200F5092230F4092220F4AE050E083
:1415240060E070E05A924A923A922A928A019B010E94861173
:1415380046E050E060E070E07A936A935A934A930E94E01053
:14154C001093210F0093200F3093230F2093220F4090260F18
:141560005090270F2090240F3090250F48EE53E060E070E091
:141574005A924A923A922A928A019B010E9486111801290170
:141588008090220F9090230F6090200F7090210F260C371CE8
:14159C00481C591C3092250F2092240F5092270F4092260F68
:1415B00046E050E060E070E0810192017A936A935A934A9358
:1415C4000E94E0101093250F0093240F3093270F2093260F03
:1415D8000A2D2D960E94BF11249608950E9495100E94CA1178
:1415EC0059012A9722E332E085010E947F10680121E0A9DD12
:14160000E02E0F3F09F453C084E088839E012B5F3F4F11270C
:141614000C0D1D1DE5DDA02E2A2C3324442455242E823F82E0
:141628004886598640902A0F50902B0F2090280F3090290FFF
:14163C00EC89FD89EC5BFF4F20823182428253824090260F17
:141650005090270F2090240F3090250F29823A824B825C8287
:141664008C899D898C5B9F4F5C01FC01208031804280538022
:1416780040E157E260E070E05A924A923A922A928A019B01FD
:14168C000E9486111801290169807A808B809C80260C371C3F
:1416A000481C591CF501208231824282538222E086014FDDC4
:1416B400A02EEA2C8E2D0F3F51F0E82FFF27EC0DFD1D208004
:1416C800EC89FD89E85BFF4F208223E086013DDDA02EEA2C58
:1416DC000F3F09F453C085E088839E012B5F3F4F11270C0D24
:1416F0001D1D78DDA02E2A2C3324442455242E823F824886BC
:14170400598640902A0F50902B0F2090280F3090290FEC897B
:14171800FD89E75BFF4F20823182428253824090260F5090D4
:14172C00270F2090240F3090250F29823A824B825C828C8975
:141740009D89875B9F4F5C01FC01208031804280538040E13E
:1417540057E260E070E05A924A923A922A928A019B010E949F
:1417680086111801290169807A808B809C80260C371C481CA0
:14177C00591CF501208231824282538224E08601E2DCA02EE9
:14179000EA2C8E2D0F3F51F0E82FFF27EC0DFD1D2080EC8980
:1417A400FD89E35BFF4F20822A960E94BF11249608950E9452
:1417B800D011690158019601850110DF0C94BA110E94ED1162
:1417CC00AE80BF80C884D9842224F5012082F6012082442711
:1417E00055270FC0FA01E00FF11F2080F5013080320C30827A
:1417F4002080F6013080320C30824F5F5F4F4217530770F338
:141808000C94F4110E9495100E94CA116C97002411241F8A5E
:14181C000E8A56C4E8A5F9A58081853259F00081EEA1FFA12A
:141830000E940D128E899F8901969F8B8E8B41C4002411246C
:141844001D8A0C8A8FEF9FEF998F888FAA24BB244DE25FE0ED
:1418580060E288A599A5019699A788A7CC24DD24E8A5F9A5AD
:14186C00E080FF24C7018032E0E09E0719F18332E0E09E07E2
:1418800091F08032E0E09E0724F1C7018B32E0E09E0789F044
:141894008D32E0E09E0749F08033E0E09E0799F016C0C501A6
:1418A80081605C0115C0C50184605C0111C0C50188605C0136
:1418BC006BE20CC0C50188605C0160E207C0C50180615C01E7
:1418D00003C081E090E06C01CC2011F4DD2009F006C088A529
:1418E40099A5019699A788A7BDCFE8A5F9A5008111270E949A
:1418F800A61800300107B9F008A519A50E9407151D8B0C8BD5
:14190C0005C088A599A5019699A788A7E8A5F9A500811127AD
:141920000E94A61868010030010789F715C0E8A5F9A5808131
:141934008A3281F48AA59BA502969BA78AA7FC01329720808E
:1419480031803D8A2C8A88A599A5019699A788A7E8A5F9A5C1
:14195C0080818E3209F03AC0CF01019699A788A7FC0100816F
:1419700011270E94A618680100300107C1F008A519A50E946C
:1419840007156801D98EC88E05C088A599A5019699A788A7D7
:14199800E8A5F9A5008111270E94A61868010030010789F7D6
:1419AC0015C0E8A5F9A580818A3281F48AA59BA502969BA7AC
:1419C0008AA7FC01329720803180398E288E88A599A501964C
:1419D40099A788A7E8A5F9A580818C3639F4CF01019699A7CE
:1419E80088A7C50182605C01E8A5F9A5C080DD24C6018335CC
:1419FC00E0E09E0709F48AC183E58C159D0564F0C6018534AB
:141A1000E0E09E0709F407C38734E0E09E0709F40BC343C0A8
:141A2400C6018835E0E09E0709F47EC08835E0E09E070CF468
:141A380038C0C6018336E0E09E0709F445C18436E0E09E079B
:141A4C0009F43AC08536E0E09E0709F4E3C28636E0E09E07AC
:141A600009F4E4C28736E0E09E0709F4E2C28936E0E09E07E8
:141A740039F18F36E0E09E0709F456C08037E0E09E0709F4DE
:141A880051C08337E0E09E0709F400C28537E0E09E0709F43D
:141A9C0047C08837E0E09E0709F442C000C0E8A5F9A50081A0
:141AB000EEA1FFA10E940D128E899F8901969F8B8E8BFFC258
:141AC400A1FE1EC08AA59BA504969BA78AA7FC0134972080AD
:141AD8003180428053802C863D864E865F868AE090E09B838E
:141AEC008A832C843D844E845F844882598291018A010E944F
:141B0000B815C1C08AA59BA502969BA78AA7FC0132972080A3
:141B140031803B8E2A8E8AE090E09983888391018A010E94CB
:141B28004D15ADC0A1FE10C08AA59BA504969BA78AA7FC01F2
:141B3C00349720803180428053802C863D864E865F860BC0EB
:141B50008AA59BA502969BA78AA7FC013297208031803B8E27
:141B64002A8EE8A5F9A580818537D9F4A1FE0FC08AE090E0B8
:141B78009B838A832C843D844E845F844882598291018A0146
:141B8C000E9470167AC08AE090E0998388832A8D3B8D8A01D8
:141BA0000E94D71670C0E8A5F9A580818F3609F5A0FE04C021
:141BB40080E3FA018193AF01A1FE0FC088E090E09B838A838A
:141BC8002C843D844E845F844882598291018A010E947016F9
:141BDC0054C088E090E0998388832A8D3B8D8A010E94D71649
:141BF0004AC0E8A5F9A58081803739F480E3FA01819388E7E6
:141C04008193AF010CC0A0FE0AC080E3FA018193AF01E8A525
:141C1800F9A52080FA012192AF01A1FE0FC080E190E09B83BF
:141C2C008A832C843D844E845F844882598291018A010E940D
:141C4000701609C080E190E0998388832A8D3B8D8A010E949D
:141C5400D716E8A5F9A58081883599F48DE29FE07C010BC0E3
:141C6800F701008111270E94C4186801F701C082C701019637
:141C7C007C01F7012080222089F78DE29FE07C01888D998DD7
:141C90008F3FEFEF9E0721F400241124198E088E088C198C0B
:141CA400002019F4112009F404C10DE21FE00E947310680190
:141CB800DB8ECA8E088C198C0C141D040CF0F7C00601198E7C
:141CCC00088EF3C08AA59BA502969BA78AA7FC0132972080DB
:141CE00031802A8681E090E00C881D888015910544F4198E7B
:141CF400088E22242B86CE010A967C01DAC00A85EEA1FFA10B
:141D08000E940D128E899F8901969F8B8E8BD5C18AA59BA5E8
:141D1C0002969BA78AA7FC013297C080D180888D998D8F3F48
:141D3000EFEF9E0721F400241124198E088E0C881D88002018
:141D440011F4112051F086010E94FA14A8012C883D88201A81
:141D5800310A3D8A2C8A088C198C002041F4112031F4860154
:141D6C000E94FA14A801598F488F0C881D88002011F41120BC
:141D800031F0A3FE04C0C00101979D8B8C8BA4FE26C0A3FE08
:141D94000AC0062FEEA1FFA10E940D128E899F8901969F8B4C
:141DA8008E8BA2FC4CC00FC000E3EEA1FFA10E940D128E89AB
:141DBC009F8901969F8B8E8B8C899D8901979D8B8C8B2224B9
:141DD00033240C881D882014310454F334C0A2FC17C00FC087
:141DE40000E2EEA1FFA10E940D128E899F8901969F8B8E8B00
:141DF8008C899D8901979D8B8C8B222433240C881D882014BB
:141E0C00310454F3A3FE19C0062FEEA1FFA10E940D128E8990
:141E20009F8901969F8B8E8B0EC0F6010691EEA1FFA10E947F
:141E34000D128E899F8901969F8B8E8BC60101966C01F601A0
:141E48002690222049F0488D598DCA010197998F888F403088
:141E5C00450729F7A2FE2FC10FC000E2EEA1FFA10E940D12D5
:141E70008E899F8901969F8B8E8B8C899D8901979D8B8C8B33
:141E8400222433240C881D882014310454F317C18AA59BA57D
:141E980002969BA78AA7FC013297E080F180EE2031F4FF2042
:141EAC0021F48AEA90E06C013ACF888D998D8F3FEFEF9E0727
:141EC00021F400241124198E088E0C881D88002011F41120D4
:141ED40051F087010E94731068012C883D88201A310A3D8AEE
:141EE8002C8A088C198C002041F4112031F487010E9473109F
:141EFC006801D98EC88E0C881D88002011F4112031F0A3FE5B
:141F100004C0C00101979D8B8C8BA4FE26C0A3FE0AC0062F39
:141F2400EEA1FFA10E940D128E899F8901969F8B8E8BA2FC02
:141F38004CC00FC000E3EEA1FFA10E940D128E899F89019611
:141F4C009F8B8E8B8C899D8901979D8B8C8B222433240C88FB
:141F60001D882014310454F334C0A2FC17C00FC000E2EEA16F
:141F7400FFA10E940D128E899F8901969F8B8E8B8C899D89A4
:141F880001979D8B8C8B222433240C881D882014310454F3E8
:141F9C00A3FE19C0062FEEA1FFA10E940D128E899F890196BC
:141FB0009F8B8E8B0EC0F7010081EEA1FFA10E940D128E898C
:141FC4009F8901969F8B8E8BC70101967C01F7012080222051
:141FD80049F0688D798DCB010197998F888F6030670729F700
:141FEC00A2FE69C00FC000E2EEA1FFA10E940D128E899F8938
:1420000001969F8B8E8B8C899D8901979D8B8C8B2224332443
:142014000C881D882014310454F351C061E070E00BC062E020
:1420280070E008C06627772705C063E070E002C064E070E0B3
:14203C008AA59BA504969BA78AA7FC01349720803180428039
:142050005380288A398A4A8A5B8A888D998D8F3FEFEF9E07EF
:1420640021F486E090E0998F888F088C198C198608860C8844
:142078001D881F820E82BD82AC82288839884A885B88288241
:14208C0039824A825B829B010DE21FE00E942519B8017B013D
:1420A0000CC0F70101917F01EEA1FFA10E940D128E899F8927
:1420B40001969F8B8E8BF7012080222081F788A599A50196EA
:1420C80099A788A7E8A5F9A52080222009F0A4CB0E891F89E1
:1420DC006C960E94BF1124960895E02FF12FAA27BB270190B2
:1420F000002011F01196FBCF0A2F1B2F0895E22FF32FA02F28
:14210400B12F0080002049F031961D90112041F01014B9F368
:142118000F5F1F4FF0CFE217F30711F400E010E008953A93E6
:14212C002A931A930A9308950F920990002031F035952795FA
:14214000179507950A94F8CF0F9008956894DA92D12E04C077
:14215400E894DA92D12ED32617FF04C0109500950F5F1F4FA7
:1421680037FF04C0309520952F5F3F4F0E94C710D7FE04C0C1
:14217C00109500950F5F1F4FD9900895689401C0E894EA927E
:14219000FA928A93EE24FF2480E1000F111FEE1CFF1CE216A0
:1421A400F30618F0E21AF30A03958A95A1F716F40E2D1F2D4D
:1421B8008991F990E9900895E89401C0689430D0CC2409C068
:1421CC00E89401C068942AD037FD0E941612B7FD52D077245D
:1421E00088249924AA24BB2442D0C1F045D0B1F0E8E2000F83
:1421F400111F221F331F771C881C991CAA1CBB1C881699064E
:14220800AA06BB0628F0881A990AAA0ABB0A0395EA9559F714
:14221C0026F4082D192D2A2D3B2D13C07A928A929A92AA92F7
:14223000BA92CA92EA938A939A93AA93BA938B859C85AD853E
:14224400BE85C32E0EF0CB260895C7FC0E941612B991A991B5
:1422580099918991E991C990B990A9909990899079902496D4
:14226C000895E02FE12BE22BE32B0895E82FE92BEA2BEB2B98
:14228000089580959095A095B0958F5F9F4FAF4FBF4F089574
:14229400689401C0E8942A93FA92EA92FF24EE2420E1000FF3
:1422A800FF1CEE1CE11610F0E11A03952A95B9F70EF40E2DC7
:1422BC00E990F99029910895EA93FA930A92E02FF12FD89573
:1422D000002D3196D895102D3196D895202D3196D895302D4A
:1422E4000990F991E99108950A921A928A939A93029FC001B8
:1422F800129F900D039F900D8C019991899119900990089595
:14230C000E941F127A920E94381259F177240E943E1219F40E
:142320008C019D0124C00A921A92089FB02CA12C289F902C7F
:14233400812C189FA00C911C871C099FA00C911C871C199FD9
:14234800900C811C0A9F900C811C389F800C299F800C1A9FF6
:14235C00800C0B9F800C199009900B2D1A2D292D382D799026
:142370000C942D12A990B990C990D9900895A990B990C990BE
:14238400D990E990F990499159916991799108957A936A936B
:142398005A934A93FA92EA92DA92CA92BA92AA9208957A9365
:1423AC006A935A934A930895499159916991799108957A9347
:1423C0006A935A934A93BA92AA920895A990B99049915991D7
:1423D4006991799108955A934A93DA92CA92BA92AA9208959D
:1423E800A990B990C990D9904991599108957A936A935A9345
:1423FC004A93DA92CA92BA92AA920895A990B990C990D990BF
:14241000499159916991799108950A92D8950A923196D8957A
:14242400F02DE9910990099400951095209530950F5F1F4F47
:142438002F4F3F4F08958A929A92AA92BA92EA938A939A9350
:14244C00AA93BA9389859A85AB85BC850895B991A991999109
:142460008991E991B990A9909990899024960895EE27E02B99
:14247400E12BE22BE32B0895EE27E82BE92BEA2BEB2B08958C
:142488000F920990002031F0000F111F221F331F0A94F8CF8E
:14249C000F900895689401C0E8940E9444140E94D61309F435
:1424B00048C0E62CD52CC42CB32EA22E912E802E00811181DC
:1424C400228133810E94D61309F444C0842D952D8C199D0963
:1424D800B9F072F49095809501964C2C5D2C8831B8F53595DF
:1424EC002795179507950197D1F708C0883118F5B594A79466
:14250000979487940197D1F766242EF0080D191D2A1D3B1D8F
:1425140009C0801A910AA20AB30A082D192D2A2D3B2D3323BC
:1425280022F40E94161280E8682E0E94FF1302C00E94341461
:14253C000E94531408950081118122813381C6F70E94DE132B
:14255000A9F380E83827F2CF082D192D2A2D3B2D4C2C5D2C18
:142564006E2C33233AF70E94161280E8682EE2CFFA93EA93BF
:14257800EA81FB810E945212E991F99122960895FA93EA93FF
:14258C00EA81FB810E945212E991F991398328831A930A9399
:1425A0000895FA93EA93EC2FFD2F32960E945212E991F99167
:1425B40024960895FA93EA93EA81FB810E945012E991F991C3
:1425C800229608954A925A926A928A930E94E61311F15520B7
:1425DC00E2F08FE14816C0F487E14816D1F058F4419489EE78
:1425F000481A05C035952795179507954A94D1F70EC087E106
:14260400481A000F111F221F331F4A94D1F705C03FE7232FAB
:14261800132F032F04C0662011F00E94161289916990599029
:14262C0049900895689401C0E8942227332746F017FD209549
:1426400017FD309503C0689401C0E8944A925A926A928A93D0
:1426540087E1482E5524662436F0332322F40E94161280E8CD
:14266800682E0E94FF1389916990599049900895FA93EA9398
:14267C00EA81FB8127D0E991F99122960895FA93EA93EC2FEE
:14269000FD2F32961DD0E991F99124960895FA93EA93EA8185
:1426A400FB8114D0E991F991398328831A930A930895FA93E3
:1426B800EA93EC2FFD2F329607D0E991F9913B832A831983A0
:1426CC00088308950A921A922A923A920E9444143A932A937E
:1426E0001A930A9300811181228133810E94E61309F457C083
:1426F400E62CD52CC42CB32EA22E912E802E099119912991B3
:1427080039910E94E613A1F16E244C185D0880E8481653064C
:14271C000CF033C081E848168FEF58060CF436C080E2332468
:14273000232E122E012E302F222711270027269417940794CE
:1427440037952795000F111F221F331F001C111C221C331C51
:1427580028F0081819082A083B0804C0080C191C2A1C3B1CF5
:14276C000AF001608A9551F70E94FF130E9453143990299058
:142780001990099008950FEF102F2FE73FE7662099F30E9439
:142794001612F0CF0027102F202F302FEBCF0991199129917E
:1427A8003991EDCF0FD029F0662011F00E9416129894089585
:1427BC00002329F4112319F4222309F433230895F7DF99F0F4
:1427D0008A93632E80E86822220F331F432E8FE7481A552410
:1427E4008827580A269530E8232B332789919894089544240A
:1427F800552466240895DEDF09F40895AA93BA93D2019A934C
:14280C008A938EE790E0332349F03695279517950795A81799
:14282000B907CCF41196F5CF8095909501962223BAF0000FEA
:14283400111F221FA817B90714F01197F6CF00271127222787
:142848003327899199912D01B991A991089533270FEF102FF8
:14285C002FE7322F899199912D0102C0AA93BA93A7DF49F074
:14287000D201A158BF4F2D01342D220F369527953629B9918A
:14288400A99108954A925A926A927A928A929A92AA92BA92C9
:14289800CA92DA92EA92FA928A939A93089599918991F990A8
:1428AC00E990D990C990B990A990999089907990699059902E
:1428C000499008950E944414AA93BA930E94E613E1F1E62C8B
:1428D400D52CC42CB32EA22E912E802E008111812281338177
:1428E8000E94E61371F16E244C0C5D1C80E84816530664F504
:1428FC0081E848168FEF58066CF1A29EB12DA02D919E912DF0
:14291000802DA09E800D911DA31FB31F829E800D911DA31FDC
:14292400B31F929E900DA11DB31FA19E900DA11DB31F2B2FAA
:142938001A2F092F880F001F111F221F331F0E94FF13B99193
:14294C00A9910E94531408950FEF102F2FE78FE7482EF5CF94
:142960000027102F202F302FF0CFFA93EA93EA81FB810E94FD
:142974006214E991F99122960895FA93EA93EA81FB810E94ED
:142988006214E991F991398328831A930A9308950E9450126F
:14299C0033233AF00E94DE1311F001E00895002708950FEFD3
:1429B0000895FA93EA93EA81FB810E94CC14E991F991229647
:1429C40000230895FA93EA93EC2FFD2F32960E94CC14E9912A
:1429D800F991249600230895A02FB12FE22FF32FC8953196E1
:1429EC000D920020D9F70895E02FF12FAA27BB27C89500204C
:142A000019F031961196FACF0A2F1B2F08950E94DF11580177
:142A140003C0C50101965C01F501008111270E94BA180030DE
:142A28000107A9F766277727F50180818D3229F461E0CF01E3
:142A3C0001965C0107C0F50180818B3219F4CF0101965C0146
:142A5000442755270EC00AE010E09A010E947611A801F50180
:142A640021905F013324420D531D40535040F5010081112765
:142A78000E94A6180030010751F76030670731F08A0100952B
:142A8C0010950F5F1F4F01C08A010C94E6110E9495100E94E9
:142AA000CA11A901EE84FF845A01AA2051F4BB2041F480E3CB
:142AB400EA85FB858083222421828F0153C04030E0E05E07FB
:142AC8006CF4C7018A30E0E09E0741F4CC24C394C50180955C
:142ADC00909501965C0101C0CC246A857B85970185010E946D
:142AF000C410A80189E090E08017910734F0CA01C096FB010C
:142B04008193BF0106C0CA01895A9F4FFB018193BF0197011F
:142B180085010E94C6105801AA2019F7BB2009F7CC2021F0A0
:142B2C008DE2FB018193BF012B01615070402224F2012082EE
:142B4000AA84BB840CC0F501C080FB012080F50121925F016D
:142B54001B0161507040F101C082A616B70688F30A851B8599
:142B68000E94BF11249608950E9495100E94CA112497288861
:142B7C0039884A885B88288239824A825B82288839884A887E
:142B90005B888894222032044204520441F480E3EE85FF858F
:142BA4008083222421828F0194C040E050E060E070E02888BD
:142BB80039884A885B882416350646065706ECF48C899D895A
:142BCC008A30A0E09A07B9F4AA24A39441E050E060E070E087
:142BE000288039804A805B802094309440945094240E351E26
:142BF400461E571E288239824A825B8201C0AA24CE84DF84A2
:142C08002C883D88442437FC4094552447FC5094088119810D
:142C1C002A813B815A924A923A922A920E94E210780189E077
:142C300090E08017910734F0C701C096F60181936F0106C06E
:142C4400C701895A9F4FF60181936F012C883D88442437FC54
:142C58004094552447FC5094088119812A813B815A924A92A2
:142C6C003A922A920E94E010088319832A833B832880398047
:142C80004A805B808894222032044204520409F0BBCFAA201E
:142C940021F08DE2F60181936F012601C20101976C012224FC
:142CA800F2012082EE84FF840DC0F701A080F6012080F7011A
:142CBC0021927F011601C10101976C01F101A082EC14FD04DE
:142CD00080F30E851F8524960E94BF11249608953A932A9339
:142CE4000E94CA115801CE84DF84A5011601442437FC409425
:142CF800552447FC50940A851B852C853D855A924A923A92F2
:142D0C002A920E94E210B80189E090E08017910734F0CB01B2
:142D2000C096FA018193AF0106C0CB01895A9F4FFA01819318
:142D3400AF011601442437FC4094552447FC50940A851B8586
:142D48002C853D855A924A923A922A920E94E0100A871B87EF
:142D5C002C873D872A843B844C845D848894222032044204F4
:142D7000520409F0BDCF2A01415050402224F20120826501E7
:142D84000CC0F601E080FA012080F60121926F011A014150B7
:142D98005040F101E082C416D50688F385010E94BF11229663
:142DAC0008950E94CA1169015801EA84FB84A5019701860184
:142DC0000E94C410B80189E090E08017910734F0CB01C09682
:142DD400FA018193AF0106C0CB01895A9F4FFA018193AF010A
:142DE800970186010E94C6106801CC2019F7DD2009F72A01B3
:142DFC00415050402224F201208265010CC0F601E080FA0143
:142E10002080F60121926F011A0141505040F101E082C4168A
:142E2400D50688F385010C94BF110E9495100E94CA1164978F
:142E3800CAA0DBA022243324F601318220822E8C3F8C48A04B
:142E4C0059A00CEB10E00E9462113A932A931A930A93810127
:142E600092010E94E41479F480E38093460F8EE28093470F20
:142E740080E38093480F22242092490F06E41FE05EC12E8C6B
:142E88003F8C48A059A0288639864A865B8687E190E0088507
:142E9C0019852A853B858A930E949A10802F99278F57904087
:142EB0005C014FEF5FEF6FEF70E0288439844A845B8424221B
:142EC400352246225722EF93E42DE0684E2EEF91288A398A76
:142ED8004A8A5B8A80E08C838D838E838F8380E08C878D8704
:142EEC008E878F87C5018F31E0E09E0744F08EEF9FEFF60186
:142F000091838083002711271CC1C501893EEFEF9E0744F422
:142F14008FEF9FEFF60191838083002711270FC1C5018731E2
:142F2800A0E09A076CF04797088919892A893B898A930E94D1
:142F3C0044120C871D872E873F8745C0C5018030A0E09A07DD
:142F50003CF187E190E08A199B09088919892A893B898A935A
:142F64000E949A100C871D872E873F87C501019608891989CB
:142F78002A893B898A930E944412180129014FEF5FEF6FEF8C
:142F8C0070E024223522462257222C823D824E825F8219C06C
:142FA0004FEF5FEF6FEF70E0088919892A893B8904231523DA
:142FB40026233723C5010196809590958F5F9F4F8A930E9434
:142FC8009A100C831D832E833F8386E49FE05C0140E050E013
:142FDC0060E070E0288439844A845B8424163506460657061D
:142FF00024F48DE2F50181935F012C843D844E845F8488949A
:14300400222032044204520429F480E3F50181935F0116C0E4
:143018008AE090E09B838A832C843D844E845F8448825982D4
:14302C00910185010E94B81503C0C50101965C01F5012080F6
:143040002220C9F78EE2F50181935F012C803D804E805F808A
:143054008894222032044204520421F480E381935F0168C024
:1430680086E49FE01501281A390A8FE090E082199309019722
:14307C00C82E87E08C1508F4C82EEE2442C083E090E00C81DC
:143090001D812E813F818A930E944412180129016C807D80DE
:1430A4008E809F80660C771C881C991C260C371C481C591C2F
:1430B8002C823D824E825F8288E190E00C811D812E813F8173
:1430CC008A930E949A101801290140E350E060E070E0240E2F
:1430E000351E461E571EF50121925F014FEF5FEF6FEF70E06D
:1430F4002C803D804E805F8024223522462257222C823D82C7
:143108004E825F82E394EC1408F4BBCFC50101975C0103C087
:14311C00C50101975C01F5018081803321F4319780818E329C
:14313000A9F7C50101965C012224F501208206E41FE0649670
:143144000E94BF112496089581EC90E0F801E80FF91F069132
:14315800112704701070089581EC90E0F801E80FF91F06911E
:14316C00112702701070089581EC90E0F801E80FF91F06910C
:1431800011270071107008954A935A93A8018A010E94B0180D
:143194000030010731F08A01015610400F5B1F4F01C08A0178
:1431A800599149910895E091550FF091560F0193F093560F7B
:1431BC00E093550F08950E949510AA92BA9222972C803D809A
:1431D0003092560F2092550FCE0108965C01B982A8822E81D0
:1431E4003F810CE810E00E94060C2224E091550FF091560F7E
:1431F80020822C803D800091550F1091560F021913092296CE
:14320C00B990A990249608950E94DF11B90158016E3FEFEFA5
:143220007E0719F441EC51E009C06F3FEFEF7E0719F44CED8A
:1432340051E002C049EF51E09A0185010E94F01485010C943D
:14324800E6110E9495100E94CA11B901A2978FEF9FEF5C015B
:14325C009F878E879B8B8A8B998B888B9E8F8D8F9E8B8D8B27
:1432700000241124198E088E992798A38F8FEE24FF244427FB
:14328400552780E28F8B8C8F85E689A384E10EA81FA8801515
:14329800910514F49FAB8EAB84E190E008AC19AC8015910588
:1432AC0014F499AF88AF6030670709F484C06130E0E07E0772
:1432C00079F06230E0E07E0749F06330E0E07E0761F06430C4
:1432D400E0E07E0731F073C085E489A341E050E06EC085E4D0
:1432E80089A328A839A84AA85BA8288639864A865B8628A812
:1432FC0039A84AA85BA80AE212E00E9462113A932A931A93BE
:143310000A93810192010E94E41474F406E212E00E94621106
:14332400CE01C0969A938A930E94B514088719872A873B8719
:1433380002E212E00E9462110A831B832C833D8300241124A3
:14334C001D860C8613C00EE112E00E946211CE0102969A93DB
:143360008A930E94B5140A831B832C833D838C859D8501966D
:143374009D878C870C841D8408AD19AD0016110634F3288462
:1433880039844A845B840AE112E00E9462113A932A931A939E
:14339C000A93810192010E94E4145CF0CE0108960A811B81F1
:1433B0002C813D819A938A930E94D91414F441E050E00CA8B8
:1433C4001DA804FE02C080E38F8B0F880C8A0CA81DA803FE48
:1433D80002C08BE28C8B4030450761F0CE01069699838883FC
:1433EC0008A919A92AA93BA90E941717B80162C006E112E01F
:143400000E9462110A831B832C833D83002411241D860C867B
:1434140019C02A803B804C805D800EE112E00E9462113A93FA
:143428002A931A930A93810192010E9445130A831B832C83A0
:14343C003D838C859D8501969D878C870C841D8408AD19AD0F
:143450000016110604F328A839A84AA85BA80AE212E00E941E
:1434640062113A932A931A930A93810192010E94E41494F4D6
:14347800CE0106969983888308A919A92AA93BA9CE0102961D
:14348C009A938A930E94DC120E941717B80112C0CE0106968C
:1434A0009983888308A919A92AA93BA9CE0102969A938A9316
:1434B4000E94BA120E9417176801B6012E803F80222011F4F2
:1434C800332031F091010CA51DA5A0DE68019EC300241124D6
:1434DC001D860C864030450781F48E859F858030E0E09E072A
:1434F00054F02C843D84281A390A08AC19AC021413040CF4E8
:1435040060C0EC85FD85E60FF71FC0808C2D8033E0F189E3AC
:143518008C15C8F1AC84BD8480E38C1548F48D8D9E8D80309F
:14352C00E0E09E071CF405011E8E0D8E8E859F858030E0E022
:143540009E07C4F4888999898030E0E09E073CF480E38C159E
:1435540020F40C841D84198A088A888999898030E0E09E07A1
:143568002CF0888D998D0196998F888F8E859F858030E0E07B
:14357C009E073CF080E38C1520F40C841D841E8A0D8A8C2D29
:143590008E3221F40C841D841F860E868C2D8D3229F481E0F2
:1435A40090E07C018DE28C8BCC2009F40AC08C859D85019623
:1435B8009D878C878431E0E09E070CF48DCF8E859F8580306B
:1435CC00E0E09E073CF4C50101969B8B8A8B01965C0112C0F8
:1435E0000E841F841B8A0A8A8D899E898030E0E09E0724F4FF
:1435F400C00101965C0104C08D899E8901965C0188899989E6
:143608008030E0E09E072CF48A899B890197998B888B403003
:14361C00450709F4D2C1002411241D860C860C880F890016EE
:1436300069F04C855D85CA0101969D878C87FA010CA41DA475
:14364400E00DF11D0C8800824C855D85CA0101969D878C8715
:14365800ED8DFE8DE60FF71F2080FA010CA41DA4E00DF11D47
:14366C002082FC01E00DF11D8EE280832224332408AC19AC27
:14368000201431042CF48C859D8501969D878C874D8D5E8DE7
:143694004F5F5F4FCC24DD2434C00A881B884015510509F404
:1436A8002CC04A155B058CF4EC84FD84C70101969D878C875C
:1436BC00FA01E60FF71F2080F7010CA41DA4E00DF11D20824E
:1436D00015C00CA81DA800FC04C0CC2001F5DD20F1F4EC84A4
:1436E400FD84C70101969D878C87F7010CA41DA4E00DF11D57
:1436F80080E38083C60101966C014F5F5F4F08AC19ACC014E4
:14370C00D1043CF48C859D858E30E0E09E070CF4C0CF8C85AE
:143720009D8501976C0108AC19AC002021F4112011F4CC843A
:14373400DD848A899B890D8C1E8C80199109019798A38F8F82
:143748004A155B0544F4FA01E60FF71F80818E3211F44F5FFC
:14375C005F4F4A155B050CF06BC0FA01E60FF71FE080FF243C
:143770008E2D853308F462C089E38E1508F45EC057C0F6017D
:143784000CA41DA4E00DF11DE080FF248E2D803358F088E321
:143798008E1540F07601E00CF11CF70180818F5F808348C0E8
:1437AC00F6010CA41DA4E00DF11D80818E3209F029C0C6013C
:1437C00001976C01FC01E00DF11DE080FF248E2D803358F0BF
:1437D40088E38E1540F07601E00CF11CF70180818F5F808349
:1437E80029C0F6010CA41DA4E00DF11D8081893359F4F60180
:1437FC00E00DF11D81E380838F8D98A1019698A38F8F16C03C
:14381000F6010CA41DA4E00DF11D8081893329F4F601E00D83
:14382400F11D80E38083C60101976C01C6018030E0E09E0774
:143838000CF0A3CFCC84DD84C60101969D878C87F6010CA421
:14384C001DA4E00DF11D09A000828F8D98A18030E0E09E0717
:143860009CF4CC84DD84C60101969D878C87F6010CA41DA416
:14387400E00DF11D8DE280830F8C18A00094109418A20F8EF1
:143888008AE090E0998388832F8D38A10C851D850CA41DA4F2
:14389C00000D111D0E944D15002411241D860C86EC85FD8558
:1438B0000CA41DA4E00DF11D2080222029F40C841D841B8EBF
:1438C4000A8E09C08C859D8501969D878C878431E0E09E0774
:1438D8004CF30CA81DA802FE21C00A8C1B8C0EA91FA9001671
:1438EC0011060CF08FC1A00109C0FA010CA41DA4E00DF11D94
:143900000C8C00824F5F5F4F0EA81FA84015510594F3F0019D
:1439140031970CA41DA4E00DF11D2224208276C10A8C1B8C0F
:143928000EA91FA9001611060CF06EC1A00114C0FA010EA88E
:14393C001FA8E00DF11D0A8C1B8CE019F1090CA41DA4E00D27
:14395000F11DDA01A00DB11D2C902082415050404030E0E050
:143964005E0744F74EA95FA90A8C1B8C40195109415050409F
:1439780009C0FA010CA41DA4E00DF11D0F88008241505040D1
:14398C004030E0E05E079CF70CA81DA804FE3AC10C880F895D
:1439A000001609F435C1ECA5FDA50082EEA9FFA90A8C1B8CD9
:1439B400E019F1090CA41DA4E00DF11D002E008225C10CA856
:1439C8001DA800FE10C02A883B8808AC19AC200C311C2A14B3
:1439DC003B047CF08A899B89800D911D01965C0108C08A89EB
:1439F0009B890196A816B90611F4AA88BB8884E190E08A159D
:143A04009B050CF45C01150108881988201831083B8E2A8E78
:143A18000C880F89001621F0C10101969B8F8A8F0EA81FA82E
:143A2C000A8D1B8D001611061CF408011FAA0EAA84E190E0AB
:143A40000EA81FA88015910514F49FAB8EAB84E190E00A8CD4
:143A54001B8C8015910514F49B8F8A8F0CA81DA802FC07C003
:143A68000EA81FA80A8D1B8D0016110671F4CC24DD240C8877
:143A7C000F89001609F433C0ECA5FDA5008281E090E06C01A5
:143A90002CC0CEA8DFA80A8C1B8CC018D1084427552709C09B
:143AA400FA010CA41DA4E00DF11D0F8800824F5F5F4FC41658
:143AB800D506A4F70C880F89001699F00CA81DA804FE05C079
:143ACC00ECA5FDA50C88008207C0F6010CA41DA4E00DF11D73
:143AE0000C880082C60101966C01A601088C198C002059F4A4
:143AF400112049F4FA010CA41DA4E00DF11D80E380834F5FD5
:143B08005F4F002411241D860C8616C02C843D84260E371E9D
:143B1C00E889F989E20DF31D2080FA010CA41DA4E00DF11D9C
:143B300020824F5F5F4F8C859D8501969D878C870C841D8451
:143B4400088D198D001611061CF30A881B880A141B044CF444
:143B5800FA010CA41DA4E00DF11D8EE280834F5F5F4F0024FF
:143B6C0011241D860C862CC02D883E880E841F8420183108CE
:143B80000C841D84021413047CF41001260E371EEE85FF85D2
:143B9400E20DF31D2180FA010CA41DA4E00DF11D20820BC0A9
:143BA8000CA81DA800FE24C0FA010CA41DA4E00DF11D80E3E4
:143BBC0080834F5F5F4F8C859D8501969D878C870C841D8464
:143BD00008AD19AD001611062CF44431E0E05E070CF4C8CFE8
:143BE40009C0FA010CA41DA4E00DF11D0C8C00824F5F5F4F27
:143BF8000EA81FA84015510594F3FA010CA41DA4E00DF11DA3
:123C0C00222420820CA51DA5A2960E94BF11249608954A
:00000001FF
